:020000040800F2
:1000000090070020E5010008E91400089314000897
:10001000E51400085D1300087B1A000800000000CA
:10002000000000000000000000000000E1160008D1
:1000300061130008000000005D150008F5170008B6
:10004000FF010008FF010008FF010008FF01000890
:10005000FF010008FF010008FF010008FF01000880
:10006000FF010008FF010008FF010008FF01000870
:10007000FF010008FF010008FF010008FF01000860
:10008000FF010008FF010008FF010008FF01000850
:10009000FF010008FF010008FF010008FF01000840
:1000A000FF010008FF010008FF010008FF01000830
:1000B000FF010008FF010008FF010008FF01000820
:1000C000FF010008FF010008FF010008FF01000810
:1000D000FF01000859180008FF010008FF0100088F
:1000E000FF010008FF010008FF010008FF010008F0
:1000F000FF010008FF010008FF010008FF010008E0
:10010000FF010008FF010008FF010008FF010008CF
:10011000FF010008FF010008FF010008FF010008BF
:10012000FF010008FF010008FF010008FF010008AF
:1001300000F002F800F047F80AA090E8000C8244B2
:100140008344AAF10107DA4501D100F03CF8AFF28F
:10015000090EBAE80F0013F0010F18BFFB1A43F0A5
:1001600001031847E024000000250000103A24BFD6
:1001700078C878C1FAD8520724BF30C830C144BF0C
:1001800004680C607047000000230024002500264E
:10019000103A28BF78C1FBD8520728BF30C148BFEA
:1001A0000B607047662902F0FD81002070471FB583
:1001B00000F01AFB04000020002102F0C7F8E06004
:1001C0001FBD10B510BD00F02BFC1146FFF7EFFF6F
:1001D00001F0B2FF00F049FC03B4FFF7F2FF03BCEB
:1001E00001F068FC0948804709480047FEE7FEE740
:1001F000FEE7FEE7FEE7FEE7FEE7FEE7FEE7FEE7D7
:1002000004480549054A064B70470000F9170008E5
:100210003101000890010020900700209003002089
:1002200090030020704700000FB4044910B503AAE2
:10023000029800F0C7FA10BC5DF814FB180000200B
:100240002DE9F0474FF0000A89460446C0F820A087
:100250002046E1688847002876D0252806D0D4E9D2
:1002600001219047206A401C2062F1E7E1682046A6
:1002700000258847C4F81CA006460027C4F818A02B
:100280002A2E09D0304601F00EFC38B304EB870863
:10029000303EC8F8186019E059F8041B204604EBFA
:1002A00087029161E1688847012F064618D1E0690D
:1002B000002820DA25F020051DE0D8F8180000EB12
:1002C000800006EB40003038C8F818002046E1688E
:1002D0008847064601F0E7FB0028EED1012F0AD03F
:1002E0002E2E08D12046E16888477F1C0646022F43
:1002F00045F02005C4DBA069002803DA404245F040
:100300000105A061E80701D025F01005B6B1A6F1FE
:100310004100192802D8203645F400654A46314686
:10032000204625604D46FFF73DFF58B1012806D015
:10033000ED1D25F0070000F1080989E704E005F14B
:10034000040985E730468AE7206ABDE8F0874FF068
:10035000000200B5134694469646203922BFA0E815
:100360000C50A0E80C50B1F12001BFF4F7AF090721
:1003700028BFA0E80C5048BF0CC05DF804EB890012
:1003800028BF40F8042B08BF704748BF20F8022B55
:1003900011F0804F18BF00F8012B7047704770476D
:1003A0007047704770472DE9FF4F0C461E464FF0CF
:1003B000FF378BB0D2E90001DDF860800A908A46F1
:1003C000C1F30A5505B93D46002108464FF000002B
:1003D000BAF1000F00F4400005DA00EB80004FF4A2
:1003E000400101EA50004FEA9059B9F1010F00DDD8
:1003F000B9460A9850EA4A000ED044F61050A5F2C9
:10040000FF3545432F14B8F1000F1ED07542291E49
:100410001EDDC9F100021CE0B8F1010F4FF0000031
:1004200001D0302103E0F24305E02154401CB042EA
:10043000FBDB30460022002121540B99C1F80880D3
:10044000C1E900200FB0BDE8F08FBD1B6D1CDEE7D9
:100450004A4600DA694206A800F068FA06AB93E85B
:10046000070003AB83E8070050460A9900F046FBFB
:100470008DE80700A0F500501F3800900398002D6C
:100480000ADD42F21F014A460844002303A90390F3
:10049000684600F0AFFD09E0A0F500504A461F385D
:1004A000002303A90390684600F0B9FD8DE807001A
:1004B0000004000C03D04FF0FF30410800E010466C
:1004C000B8F1000F03D00022009215461EE0751E01
:1004D00005D400F08DF9303262556D1EF9D5B34662
:1004E0000122084302D000227F1C04E0207830283B
:1004F00001D100227F1E002A099784D01DE0112D12
:1005000007DA00F075F9303262556D1C50EA0102CD
:10051000F5D1084302D00098C8B10EE00021681E52
:1005200005E0235C625C63542254401E491C8142F6
:10053000F7DBAB46A81B401E0990002004F80B0017
:100540000B98099AC0F80880C0E9002B7AE71126B9
:100550004FF0000857E72DE9F04F88460446D21DBA
:1005600022F0070191B0D1E90001CDE90A0101F0C3
:1005700086FA02460B98C00F01D02D2007E02068B4
:10058000810701D52B2002E0202101EAC000032AC7
:10059000099001D0072A05DB03464146204600F0BA
:1005A00085F90BE12078800601D5E06900E006209E
:1005B000B8F1650F814606D0B8F1660F18D0B8F1D2
:1005C000670F70D131E00020B9F1110F009001DB0D
:1005D000112301E009F101030AAA01A90CA8FFF700
:1005E000E2FEDDE90C70002609F10105834647E0D3
:1005F00001204B4600904FF000470AAA01A90CA821
:10060000FFF7D1FEDDE90DB00C995D46002610B96B
:1006100009F101000D18B9EB050003D4C0F1FF3654
:1006200009F10105A5EB09002BE0B9F1010F01DA91
:100630004FF001090020B9F1110F0090484601DD8B
:10064000112300E003460AAA01A90CA8FFF7ABFE9C
:10065000DDE90C704D4600268346207800070AD459
:10066000AB4500DA5D4601A8012D04DD411911F802
:10067000011C302907D04F4502DA17F1040F04DAC4
:10068000012082460FE06D1EEEE7002F02DCED1B1D
:100690003E4403E0781CA84200DD7D1CB81B00F13D
:1006A000010A4FF000472078000703D4AA4501DB78
:1006B0004FF0FF3A0021B7F1004F0DF143088DF8DC
:1006C000431024D002202B23002F01DA7F422D2358
:1006D0000A21021EA0F1010000DC5FB197FBF1FCD2
:1006E00097FBF1F201FB1C7C17460CF1300C08F86B
:1006F00001CDEEE7A8F1010003702188090501D5BD
:10070000452100E06521A0F1010800F8011C0998CD
:100710000FA9A1EB0807FF1D00B10120411901EB52
:10072000EA70A1693844081A401EA0612078C0060A
:1007300002D42046AFF30080099828B1D4E9012102
:100740009047206A401C20622078C00622D52046AF
:10075000AFF300801EE0002E04DBB34502DD01A8EC
:10076000805D00E03020D4E901219047206A401CE0
:100770002062761CAAF101005FEA000A0AD100F0AB
:1007800033F8C0680168405CD4E901219047206AD1
:10079000401C2062281EA5F10105DCDC07E0D4E93D
:1007A000012118F8010B9047206A401C2062381E76
:1007B000A7F10107F3DC2046AFF30080032011B05E
:1007C00041E60000074B70B50D467B4400F05BF836
:1007D0000446284600F01CF910B14FF0FF3070BD00
:1007E000204670BD4F190000004870474C010020A2
:1007F00030B5B0F10A024FEA900E71F100034EEAF3
:10080000817EB0EB0E0061EB91014FEA101E4EEAC3
:10081000017E10EB0E0041EB11114FEA102E4EEA53
:10082000016E10EB0E0041EB11214FEA104E4EEA23
:10083000014E10EB0E0041EB1141401841F1000157
:100840004FEAD00040EA41704FEAD10110EB800539
:100850004FEA810444EA907444EB01046D1944EBBF
:100860000404521BA3414FF0000348BF0A3200D5D5
:1008700030BD401C41F1000130BD000001694A1C3F
:1008800002610878704700B58FB0CDE901310021D1
:10089000059105497944CDE9031011466846FFF7F3
:1008A000CFFC0FB000BD0000E5FFFFFF2DE9F041D8
:1008B0001F46044603260168072A01F4006004DB92
:1008C00008B116A505E016A503E008B115A500E0DE
:1008D00015A521F010002060A069C01EA0610FB115
:1008E000401EA0612046AFF300804FB1D4E9012142
:1008F00038469047206A401C2062C01C206206E0F7
:10090000206AFAE7D4E9012115F8010B9047761E19
:10091000F8D22046AFF30080BDE8F0814E414E0092
:100920006E616E00494E4600696E66002DE9F04723
:10093000814616468AB0354878440DC88DE80D00CA
:1009400032487844801C03AC0DC884E80D0041F6A1
:100950009B300844372190FBF1F290FBF1F5A5F1B3
:10096000800501FB12041B3C02D56442012000E01B
:100970000020DFF898A080460027FA44AAF1BE0ABA
:100980000EE0E0070AD03246684607EB4701012334
:100990000AEB810100F043FB8DE8070064107F1C27
:1009A000002CEED1194F7F44AE3F19E0E80715D077
:1009B00007EB04100DF1180A90E80E008AE80E000B
:1009C000C068F04201D1981908903246012306A967
:1009D00003A800F024FB03AB83E807006D10641C40
:1009E000002DE3D14FF0010332466946B8F1000F04
:1009F00003A802D000F0FEFA01E000F010FBC9E904
:100A00000001C9F808200AB0BDE8F087F01C00001A
:100A1000007B00F080007047004870472C010020E8
:100A20007546FFF7F9FFAE4605006946534620F0CC
:100A30000700854618B020B5FFF7E2FBBDE820406F
:100A40004FF000064FF000074FF000084FF0000B8A
:100A500021F00701AC46ACE8C009ACE8C009ACE83D
:100A6000C009ACE8C0098D46704710B50446AFF325
:100A700000802046BDE81040FFF7AEBB4FF0013CC0
:100A800050F8042B51F8043B9A4221D1A2EB0C03FD
:100A9000934313EACC1317D150F8042B51F8043BBD
:100AA0009A4215D1A2EB0C03934313EACC130BD15A
:100AB00050F8042B51F8043B9A4209D1A2EB0C03E5
:100AC000934313EACC13DBD04FF00000704700BF14
:100AD000D01A01BAB1FA81F101F0180122FA01F03D
:100AE000CB40C1F12001DBB2C0B2C01A2CFA01F335
:100AF000D11A914311EAC311E6D170475FEA400C65
:100B000008BF91F0000F4FEA8C234FEAC12243EA5D
:100B100051514FEA1C5018BF00F5F0404FEA300029
:100B200018BF41F000415FEA6C5C00F02980BCF125
:100B3000FF3F08BF40F080407047130C06BF12040F
:100B40004FF0100C4FF0000C130E04BF12020CF10A
:100B5000080C130F04BF12010CF1040C930F04BF17
:100B600092000CF1020CD30F04BF52000CF1010CE7
:100B700011464FF00002A0F11F00A0EB0C007047DF
:100B800011F0004F08BF704731F000413FF4D5AF7E
:100B90000B0C06BF09044FF0100C4FF0000C0B0EAD
:100BA00004BF09020CF1080C0B0F04BF09010CF182
:100BB000040C8B0F04BF89000CF1020CCB0F04BF97
:100BC00049000CF1010CCCF12003A0EB0C0022FA3F
:100BD00003F302FA0CF241EA030100F1010070474D
:100BE00020F07F4C80EA030023F07F47ACEB070343
:100BF00003F57C5300F0004003F1FF032DE9804929
:100C00004FEA154B09B44FEA144325EA0B4E24EA88
:100C100003480FF2042606EB132749083E785FEAE3
:100C2000320203FB0667C7F5000707FB06F64FEA2B
:100C300054374FEAD64606F1020607FB066CCCF1A4
:100C4000005C4FEA1C472CEA074C07FB06F40CFB40
:100C500006F504EB15464FEA961634BF00204FF018
:100C600000404FEAD13706FB07FC4FEA1C4C0CFB57
:100C70000BF7D21B03FB0CF761EB07010CFB0EF724
:100C8000B0EB074072EB17420CFB08F734BFA2EB46
:100C90000742B2EB074261EB17414FEA0C444FEABF
:100CA000910706FB07FC4FEA1C4C0CFB0BF7B0EB63
:100CB000C74072EB573203FB0CF734BFA2EBC742BD
:100CC000B2EBC74261EB57310CFB0EF7B0EBC7003C
:100CD00072EB57720CFB08F734BFA2EBC702B2EB02
:100CE000C70261EB5771039F4FEA816141EA92119C
:100CF00004EBCC044FEAD1374FEA826206FB07FCD3
:100D000042EA90124FEA80604FEA1C4C0CFB0BF752
:100D1000D21B03FB0CF761EB07010CFB0EF7B0EBEA
:100D2000074072EB17420CFB08F734BFA2EB0742F7
:100D3000B2EB074261EB17414FEA8C554FEA91073E
:100D400004EB9C2406FB07FC4FEA1C4C0CFB0BF746
:100D5000B0EBC74072EB573203FB0CF734BFA2EB8A
:100D6000C742B2EBC74261EB57310CFB0EF7B0EB59
:100D7000C70072EB57720CFB08F734BFA2EBC70237
:100D8000B2EBC70261EB577115EB4C254FEA81615D
:100D900041EA92114FEA82624FEAD13742EA901259
:100DA00006FB07FC44F100044FEA80604FEA1C4C4C
:100DB0000CFB0BF7D21B03FB0CF761EB07010CFBE1
:100DC0000EF7B0EB074072EB17420CFB08F734BF8D
:100DD000A2EB0742B2EB074261EB174115EB1C1582
:100DE0004FEA813141EA92414FEA823242EA90422F
:100DF0004FEA80304FEA0C7644F1000448EA03439E
:100E00004EEA0B484FF0000EB2EB080C71EB0307F3
:100E100024BF624639464EEB0E0E4FF0000B001811
:100E2000524149414BEB0B0BB2EB080C71EB030742
:100E30007BF1000B24BF624639464EEB0E0E4FF09D
:100E4000000B0018524149414BEB0B0BB2EB080C65
:100E500071EB03077BF1000B24BF624639464EEB72
:100E60000E0E51EA020718BF46F0010616EB0E7689
:100E700055F1000254F1000103D5BDE88901BDE838
:100E80000088BDE88901BDE80048B619524141EB30
:100E90000101A3F10103704780807F7E7D7C7B7A16
:100EA0007978777676757473727171706F6E6E6D16
:100EB0006C6C6B6A6A6968686766666564646363BC
:100EC00062616160605F5F5E5E5D5D5C5C5B5B5A42
:100ED0005A595958585757565655555554545353AF
:100EE00052525251515050504F4F4F4E4E4D4D4D0A
:100EF0004C4C4C4B4B4B4A4A4A4949494848484755
:100F00004747474646464545454444444443434392
:100F10004342424242414141002B9C4630D477003B
:100F20002BD01CB54FEA370703B44FF010004FF039
:100F30001001BAF1000F06D0BCF1000FDCBF40F089
:100F4000080040F008014FF000000FBCBDE8104061
:100F50000BF1010BBBF1010F08BF5FEA170722BFBE
:100F600012F1010211F101014FF0004143F10003C0
:100F700000F0004043EA00007047F9D35708D0E77B
:100F800046EA064613F1400F4FEA16461FDD13F1FD
:100F9000200FDFBF16430A46002120335B42BED03C
:100FA000C3F1200746EA064602FA07F74FEA16465B
:100FB00046EA0706C3F1200722FA03F201FA07F70F
:100FC00021FA03F14FF0000342EA0702A7E746EADD
:100FD000020646EA06464FEA164646EA0106BCBF46
:100FE00046EA0646360C4FF000034FF000024FF081
:100FF000000194E72DE9804C9A46934670B491E83D
:10100000380007C831EA400C48BF34EA430C03D526
:10101000FFF7E6FDFFF780FFF0BCBDE8008C2DE98F
:10102000804C9A46934670B491E8380007C810F097
:10103000804F08BF13F0804F03D100F005F8FFF791
:101040006BFFF0BCBDE8008C20F07F4780EA030016
:1010500023F07F4C07EB0C03A3F57C5300F000401A
:10106000A3F1FE0392F0000F00F0B38095F0000FA3
:1010700000F077802DE901494FEA11404FEA14460C
:1010800021EA004800FB06FC24EA064708FB06F6B6
:1010900007FB08F800FB07F718EB06484CEB164C6B
:1010A0004FEA124B18EB07484FEA15464CEB174036
:1010B00022EA0B4E0BFB06FC25EA06470EFB06F662
:1010C00007FB0EFE0BFB07F71EEB064E4CEB164C18
:1010D0004FF000061EEB074E4CEB174B18EB0B08BE
:1010E00040F1000018EB0E0B58EB000840F1000037
:1010F0008F1A4FF000013CBFC943661B14BFB5EB0C
:10110000040C00213CBFC943F61B4FEA17444EEACA
:101110008E0E27EA04454FEA1C4704FB07622CEABF
:10112000074C05FB07F70CFB05F604FB0CFC16EB64
:10113000074642EB174216EB0C4642EB1C421BEBF8
:10114000060658EB0202414146EA9E0601D5BDE87B
:101150000189B619524141EB0101A3F10103BDE838
:1011600001894FEA14454FEA114724EA054621EA6E
:10117000074C05FB07F406FB07F70CFB06F105FB24
:101180000CFC11EB074144EB17444FEA124711EBFB
:101190000C4144EB1C4422EA074C05FB07F206FB1A
:1011A00007F70CFB06F605FB0CFC16EB074642EBBB
:1011B000174216EB0C4642EB1C456A1854F100012D
:1011C00048BF7047B619524141EB0101A3F1010339
:1011D000704795F0000F37D04FEA11424FEA14479D
:1011E00021EA024624EA074C02FB07F106FB07F757
:1011F0000CFB06F402FB0CFC14EB074441EB17411B
:101200004FEA154714EB0C4441EB1C4125EA074C0F
:1012100002FB07F506FB07F70CFB06F602FB0CFCCE
:1012200016EB074645EB174516EB0C4645EB1C4203
:10123000121951F1000148BF7047B619524141EBF4
:101240000101A3F1010370474FEA14454FEA11472A
:1012500024EA054621EA074C05FB07F106FB07F7E0
:101260000CFB06F24FF0000605FB0CFC12EB0742EC
:1012700041EB174112EB0C4251EB1C4148BF704748
:10128000921841EB0101A3F1010370472DE9FC47DE
:1012900081460E4617461D464FF000080E4903C909
:1012A000CDE9000146F080008DF80000681CC2B254
:1012B0006946684600F0CEF98046002405E0601CCF
:1012C0001DF800003855601CC4B2AC42F7DB4FFA81
:1012D00088F0BDE8FC870000A82500082DE9FE4F36
:1012E00082460E4617461D464FF000090024A046D0
:1012F00000BF10E060064FEA10683046711CCEB2A5
:1013000000F07F000DF80800395D08F101000DF8CC
:101310000010601CC4B2AC42ECDB6806010E6846EB
:1013200000F0B4F981464FFA89F0BDE8FE8F10B5A0
:101330000446A0B200F0CCFE10BD000010B500F0D5
:10134000ABF800F0BBF9044800F0E6FC08B1FF2060
:1013500010BD0020FCE700000001002000BFFEE7F8
:1013600070472DE9F04102460025002600200023A9
:101370000024002791F803C00CF00F0591F803C07A
:101380000CF0100CBCF1000F03D091F802C04CEA35
:10139000050591F800C0BCF1000F31D014680020A1
:1013A0002BE04FF0010C0CFA00F3B1F800C00CEA8E
:1013B00003069E4220D183004FF00F0C0CFA03F776
:1013C000BC4305FA03FC4CEA040491F803C0BCF1E9
:1013D000280F06D14FF0010C0CFA00FCC2F814C023
:1013E0000AE091F803C0BCF1480F05D14FF0010CA1
:1013F0000CFA00FCC2F810C0401C0828D1D31460BD
:10140000B1F800C0BCF1FF0F34DD546800202EE0BD
:1014100000F1080C4FF0010808FA0CF3B1F800C015
:101420000CEA03069E4221D183004FF00F0C0CFA08
:1014300003F7BC4305FA03FC4CEA040491F803C02B
:10144000BCF1280F05D100F1080C08FA0CF8C2F81D
:10145000148091F803C0BCF1480F07D100F1080CCB
:101460004FF0010808FA0CF8C2F81080401C082858
:10147000CED35460BDE8F0810246002093680B4053
:101480000BB1012000E0002070474161704701610D
:10149000704700BFFEE7000008B50121042000F0FE
:1014A0005FF81C20ADF8000010208DF80300032029
:1014B0008DF8020069460A48FFF753FF10210848DB
:1014C000FFF7E5FF0120ADF8000048208DF803008C
:1014D00003208DF8020069460148FFF742FF08BD6E
:1014E0000008014000BFFEE77047000070B5002112
:1014F00000230F22C47804B3154C246804F4E0647C
:10150000C4F5E064210AC1F10403CA40447804FA36
:1015100003F184781440214309010E4C0678A1554B
:10152000047804F01F050124AC4005786D11AD006E
:1015300005F1E025C5F8004109E0047804F01F0535
:101540000124AC40044D0678761145F8264070BD64
:101550000CED00E000E400E080E100E070470000F6
:1015600029B1064A92690243044B9A6104E0034A96
:1015700092698243014B9A6170470000001002405B
:1015800030B500210022002400232D4D6D6805F0A8
:101590000C0121B1042905D0082923D105E0294DEA
:1015A000056022E0274D05601FE0254D6D6805F4BC
:1015B0007012234D6D6805F48034022505EB9242CC
:1015C0001CB9214D554305600BE01D4D6D6805F4B8
:1015D00000351DB11C4D5543056002E0194D5543C2
:1015E000056002E0174D056000BF00BF144D6D6837
:1015F00005F0F0010909154D6B5C0568DD4045609B
:101600000F4D6D6805F4E061090A104D6B5C45688B
:10161000DD4085600A4D6D6805F46051C90A0B4DC7
:101620006B5C4568DD40C560054D6D6805F4404163
:10163000890B074D6B5CC568B5FBF3F5056130BDE3
:101640000010024000127A0000093D001E00002038
:101650002E0000202DE9F04105460E4617461021C8
:101660000948FFF712FF002404E0285D00F0F4FDB4
:101670003055641CBC42F8DB10210348FFF707FF1C
:101680000020BDE8F08100000008014070B505466B
:101690000E4610210848FFF7F8FE002403E0285DFD
:1016A00000F0DAFD641CB442F9DB10210248FFF7B8
:1016B000EEFE002070BD000000080140044805490E
:1016C00008620548486205488862002070470000AB
:1016D000DD120008000100208D1200082F13000801
:1016E000704710B500F002F810BD00000CB50020E6
:1016F000019000903348006840F480303149086020
:1017000000BF3048006800F4003000900198401C91
:101710000190009818B90198B0F5A06FF1D129484F
:10172000006800F4003010B10120009001E00020BA
:1017300000900098012843D12348006840F0100031
:10174000214908600846006820F003000860084648
:10175000006840F0020008601A4840681949486073
:101760000846406848600846406840F48060486029
:101770000846406820F47C1048600846406840F401
:10178000E81048600846006840F08070086000BFBC
:101790000C48006800F000700028F9D00948406843
:1017A00020F00300074948600846406840F0020006
:1017B000486000BF0348406800F00C000828F9D1D9
:1017C0000CBD00000010024000200240042808D197
:1017D0004FF0E021096941F004014FF0E02211616E
:1017E00007E04FF0E021096921F004014FF0E02209
:1017F000116170477047000010B51348006840F051
:1018000001001149086008464068104908400E4927
:101810004860084600680E4908400B4908600846C1
:10182000006820F4802008600846406820F4FE002C
:1018300048604FF41F008860FFF753FF4FF00060CF
:101840000449086010BD0000001002400000FFF8CD
:10185000FFFFF6FE08ED00E010B540F225511D48EF
:1018600000F04AF810B31B4800F002F9C4B21A485D
:10187000008800F40040C8B91748008800F4804090
:1018800060B10A2C03D000201349088020E01248E0
:10189000008840F400401049088019E00D2C06D162
:1018A0000D48008840F480400B49088010E00A4849
:1018B0000088C0F30D0009490C5407480088401CFB
:1018C0000549088008460088C72801DD00200880F7
:1018D00010BD0000003801401C000020380000202E
:1018E00021B1828942F40052828104E082894DF65E
:1018F000FF731A408281704770B5024600240023AE
:101900000025002040F66A16B14200D100BFC1F3A5
:10191000421501F01F03012606FA03F3012D02D13F
:101920009689334006E0022D02D1168A334001E049
:10193000968A33400C12012606FA04F416883440C5
:1019400013B10CB1012000E0002070BDF0B50346DA
:10195000002400260025002040F66A17B94200D175
:1019600000BF1846C1F3421401F01F06012707FA11
:1019700006F5012C01D10C3004E0022C01D110300D
:1019800000E014301AB107682F43076002E00768CF
:10199000AF430760F0BD00002DE9F04786B0054673
:1019A0000E460024A24600BFA1460027B08900B120
:1019B00000BF2F462C8A4CF6FF700440F088044389
:1019C0002C82AC894EF6F3100440B088318908436C
:1019D000718908430443AC81AC8A4FF6FF40044050
:1019E000B0890443AC8201A8FFF7CAFD1F488742B3
:1019F00002D1DDF810A001E0DDF80CA0A88900F408
:101A0000004040B10AEBCA0000EB0A1031684900FF
:101A1000B0FBF1F807E00AEBCA0000EB0A103168EE
:101A20008900B0FBF1F86420B8FBF0F00401200954
:101A3000642101FB1089A88900F4004040B13220E4
:101A400000EBC900B0FBF1F000F00700044308E030
:101A5000322000EB09106421B0FBF1F000F00F0020
:101A600004432C8106B0BDE8F08700000038014037
:101A700001468888C0F30800704700BFFEE74900B0
:101A800050EAC12018BF04204A0D18BF40F00100E1
:101A900040F2FF72B2EB515F08BF40F00200012834
:101AA00008BF0520704730380A2801D2012070474E
:101AB0000020704700BF704730B5044600BF00BF2C
:101AC00000BF3448006880694FF47A45C5EB600177
:101AD00088104043C0122F4D2D68B5F9105000FBFF
:101AE00005F32C480068B0F90E00484303EB4003AF
:101AF0009810284D2D68AD8900EB054388104043B0
:101B00004013244D2D68B5F90A506843C51021488B
:101B10000068B0F90800484305EB6000811401F546
:101B200000401C4D2D68ED886843C113C4F580103A
:101B3000A0EB233040F6354500FB05F2B2F1004F33
:101B400006D219B15000B0FBF1F208E0002030BD20
:101B500019B1B2FBF1F0420001E00020F7E7D00834
:101B60004043400B0B4D2D68B5F9165068430113E7
:101B70009008084D2D68B5F9145068434313C818F0
:101B8000044D2D68B5F91250284402EB201210467E
:101B9000DDE700003400002030B5014600220023BC
:101BA0000020CC10114D2D682D88A4EB45040F4D5D
:101BB0002D68B5F902506C43E2120C4C246824885D
:101BC000C4EB211464432413084D2D68B5F9045067
:101BD0006C43A313D418054D2D68AC61034C2468E5
:101BE000A46904EB84048034201230BD340000204A
:101BF00030B587B04FF0FF34182101A8FEF7A7FBDE
:101C00004448006810B96FF07E0480E041490968DB
:101C1000487F40490968182301AA4D6A8821A847CE
:101C200004469DF804009DF8051040EA012039495A
:101C3000096808809DF806009DF8071049B240EA3F
:101C400001203449096848809DF808009DF8091072
:101C500049B240EA01202F49096888809DF80A00AE
:101C60009DF80B1040EA01202A490968C8809DF8B8
:101C70000C009DF80D1049B240EA01202549096881
:101C800008819DF80E009DF80F1049B240EA01202E
:101C90002049096848819DF810009DF8111049B24B
:101CA00040EA01201B49096888819DF812009DF8CF
:101CB000131049B240EA012016490968C8819DF80D
:101CC00014009DF8151049B240EA01201149096835
:101CD00008829DF816009DF8171049B240EA0120CD
:101CE0000C49096848829DF818009DF8191049B2FE
:101CF00040EA01200749096888829DF81A009DF88A
:101D00001B1049B240EA012002490968C8822046F6
:101D100007B030BD34000020F8B506464FF0FF3460
:101D20000020009005251B4806601EE0194909683F
:101D3000487F1849096801236A464F6AD021B8478D
:101D400004469DF80000562807D09DF8000057284B
:101D500003D09DF80000582800D108E0681EC5B2E5
:101D60000C480068816A01208847002DDEDC00BF36
:101D70009DF8000007490968087715B94FF0FF3052
:101D800000E0002004461CB9FFF732FF204444B2B3
:101D90002046F8BD34000020F8B504464FF0FF356A
:101DA000002000900F48006810B96FF07E0516E023
:101DB0000C490968487F0B49096803236A464E6A43
:101DC000F721B04705469DF8000000039DF801107B
:101DD00040EA01109DF8021040EA111020602846E8
:101DE000F8BD000034000020F8B504464FF0FF3580
:101DF000002000900F48006810B96FF07E0516E0D3
:101E00000C490968487F0B49096803236A464E6AF2
:101E1000FA21B04705469DF8000000039DF8011027
:101E200040EA01109DF8021040EA11102060284697
:101E3000F8BD000034000020F8B50546002400205D
:101E400000901248006810B96FF07E041CE00F4942
:101E50000968487F0D49096801236A464E6AF521E1
:101E6000B047044684B99DF8000065F384000090F3
:101E700006490968487F0549096801236A460E6AD0
:101E8000F521B047204444B22046F8BD340000207C
:101E9000F8B504464FF0FF35002000901348006865
:101EA00010B96FF07E051FE010490968487F0F499F
:101EB000096801236A464E6AF421B04705469DB978
:101EC0009DF8000064F38400009008490968487F89
:101ED0000649096801236A460E6AF421B04728447E
:101EE00045B202480068C4772846F8BD3400002097
:101EF000F8B504464FF0FF35002000901348006805
:101F000010B96FF07E051FE010490968487F0F493E
:101F1000096801236A464E6AF421B04705469DB917
:101F20009DF8000064F34710009008490968487F55
:101F30000649096801236A460E6AF421B04728441D
:101F400045B20248006884772846F8BD3400002076
:101F5000F8B504464FF0FF350020009011480068A6
:101F600010B96FF07E051BE0032C17DC0D480068EC
:101F7000807F40010B490968C97F00EB8100204444
:101F8000C0B2009007490968487F064909680123E3
:101F90006A460E6AF421B047054601E06FF001057C
:101FA0002846F8BD34000020F8B504464FF0FF3550
:101FB000002000903448006810B96FF07E0561E0A1
:101FC000042C5DDC30490968487F2F4909680123EA
:101FD0006A464E6AF421B0470546002D52D1052CC1
:101FE00030D2DFE804F0030B141D2600012026493F
:101FF0000968887724490968C87723E001202249C5
:1020000009688877022020490968C8771AE001200A
:102010001D490968887703201B490968C87711E0C2
:102020000120194909688877042017490968C87789
:1020300008E00220144909688877052012490968D8
:10204000C87700BF00BF10480068817F9DF800007E
:1020500061F3471000900C480068C17F9DF80000B4
:1020600061F38400009008490968487F06490968BF
:1020700001236A460E6AF421B047284445B201E0C4
:102080006FF001052846F8BD3400002010B56FF050
:102090000400FFF79BFB0A4800680A49B0FBF1F017
:1020A000094908700846007800EB4001C1EBC010F8
:1020B0004FF6FF7101EAC0000449088010BD00001E
:1020C0000000002000127A001400002016000020FA
:1020D0000146114A12884A434FF0E0235A61002218
:1020E0009A611A46126942F001021A6100BF4FF06C
:1020F000E022106900F001021AB100F48032002AD7
:10210000F5D04FF0E022126922F001024FF0E023F7
:102110001A6100229A6170471600002000BF054A2C
:10212000128802F04002002AF9D0C2B2014B1B1DF6
:102130001A807047003801401CB54FF47A3000F027
:10214000B5F8FFF7A3FFFFF7F9F810B130A0FEF7DD
:102150006BF80020FFF728FF10B12DA0FEF764F800
:102160000420FFF769FE10B129A0FEF75DF80520F5
:10217000FFF7BEFE10B126A0FEF756F80520FFF7C8
:1021800087FE10B122A0FEF74FF840E04FF4FA703E
:10219000FFF79EFF0120FFF7DBFE10B11CA0FEF74A
:1021A00043F801A8FFF720FE10B119A0FEF73CF894
:1021B0006846FFF7F1FD10B115A0FEF735F801985C
:1021C000FFF7EAFC07460098FFF776FC80463846A2
:1021D00000F004F981460F4900F018F9044600F0B8
:1021E000D1F805462A460B460BA0FEF71DF84046DF
:1021F00000F0F4F88146074900F008F9044600F0C1
:10220000C1F805462A460B460BA0FEF70DF8BDE7C0
:10221000000000000AD7233C43757272656E74207B
:1022200054656D70657261747572653A252E3266FB
:1022300020A1E3430D0A000043757272656E74209D
:1022400050726573737572652020203A252E3366AF
:10225000206B50610D0A000070B50646002507246A
:102260001EE06806050E08210F48FFF70EF9012051
:10227000A040304020B104210B48FFF708F903E0EB
:1022800004210948FFF701F908210748FFF7FFF883
:1022900001210548FFF7F0F808B145F00105641E7B
:1022A000002CDEDA284670BD0008014010B586B06B
:1022B0000446012144F20400FFF752F94FF4007084
:1022C000ADF8140003208DF8160018208DF81700C3
:1022D00005A91C48FFF745F84FF48060ADF81400DD
:1022E00004208DF8170005A91648FFF73AF82520B5
:1022F0008DF8000003208DF801008DF80200012008
:102300008DF803006846FFF7F1F801940020ADF85E
:102310000800ADF80A00ADF80C00ADF810000C2074
:10232000ADF80E0001A90848FFF736FB012240F284
:1023300025510548FFF70AFB01210348FFF7D0FAB2
:1023400006B010BD000801400038014010B500295A
:102350000AD00878002807D005487844FEF78EFB9D
:10236000002801D0002010BD0248784410BD0000B4
:102370000A030000020300000808A0F500114FEA5C
:102380003101704743004FEAD30C4FEA3C0C434005
:102390001FBF40070CF1605113F0FE4F70471CF057
:1023A000006F03D100200CF0004170470CF0004397
:1023B00043EA507010B540EACC0000F0A8F800BF26
:1023C000000000924FEA0001FFF7D6BF4FF0004136
:1023D0004FF00000A1F500217047000010F000410F
:1023E00048BF4042B0FA80F310FA03F2C3F19D03F4
:1023F0000BD051EAC35101EB1220530638BF70478E
:1024000000F1010008BF20F0010070474FF47F0C7D
:102410001CEAD0121EBF1CEAD11392EA0C0F93EAF9
:102420000C0F00F0478090EA010F48BF42F4807221
:102430004FF0004C4CEA00204CEA012102EB030271
:10244000A0FB0113A2F50002002918BF43F001030D
:102450005B0028BF4FEA330342EB22425FEA132CB2
:102460004CEBC2502EBFBCEB436FB2F57C0F7047F4
:102470004FEA036CBCF1004F08BF20F00100B2F539
:102480007C0F38BF70470BD582F0FF0212F5803FFA
:10249000C8BF704700F1C040D8BF00F0004070478F
:1024A00000F5000C5FEA4C0C48BF7047B0F1C0402B
:1024B00000F073B890EA010F0CEAD11348BF42F460
:1024C0008072624538BF634504D280EA010000F0A3
:1024D0000040704710B500F01AF800BF8900013EB7
:1024E00000F007B800F009B85FEA410C5FEA1C6C25
:1024F00008D080EA010000F050B85FEA400C5FEAC3
:102500001C6CF6D14FF00040A0F5800070470EF132
:10251000020E2EF0030E5EF8044B244204D44FEA60
:102520004102B2F17F4F11D84FEA4003B3F17F4F20
:102530000CD80ED14FEAD07CB2F17F4F0CEB4C0C93
:102540000CF1020C08BF4CEBD17C04E04FF0080CFE
:1025500001E04FEAD17C0CEB4C0324FA03F404F0C5
:102560000704B4F1040C06D20EEB840CBDE8104055
:102570004CF0010C6047DFE80CF0070802024FF056
:102580000040A0F5800010BD0846420018BFD2F1FF
:10259000807288BF00F0004010BDFF2141EAD0509A
:1025A000C0057047FDF7D7BFFF0000000000000026
:1025B00002400000000000A00000000005400000F4
:1025C000000000C8000000000C4000000000409C1B
:1025D00000000000194000000020BCBE0000000008
:1025E00034400000BFC91B8E00000004B54000004D
:1025F000504BCFD06607E2CF010000006C410000D5
:102600003E8251AADFEEA73401000000D94200004B
:10261000DCB5A0E23A301F97FFFFFFFFB445000092
:10262000FD25A0C8E9A3C14FFFFFFFFFFF3F00004A
:102630000000008000000000FF3F0000000000805C
:102640000000000080260008000000203800000084
:102650006C010008B8260008380000205807000068
:10266000880100081C00000043000000F8FFFFFF85
:102670000C0000000E0000000F0000002E00000003
:1026800000A24A0400000000000000000102030450
:10269000060708090000000000000000000000001C
:1026A00000000102030401020304060708090204F2
:0826B000060800000000000014
:04000005080001E509
:00000001FF
